S02100006D656761385F6E726632346C30315472616E736D69747465722E73726563BC
S113000012C036C02BC02AC029C028C027C026C0B1
S113001025C024C023C022C021C020C01FC01EC0D0
S11300201DC01CC01BC011241FBECFE5D4E0DEBF21
S1130030CDBF11E0A0E6B0E0EEE3FEE002C0059023
S11300400D92A038B107D9F721E0A0E8B1E001C0D2
S11300501D92AC3FB207E1F771D0EFC6D1CF9698AD
S11300608BB780648BBF82E085BF80E48ABF08952C
S11300701F920F920FB60F9211242F933F934F9319
S11300805F936F937F938F939F93AF93BF93CF931C
S1130090EF93FF93F894AD9A19D1C82F1F928F93C1
S11300A082E990E09F938F9381E891E09F938F93EF
S11300B0FED381E891E058D38FE19EE40197F1F7F4
S11300C000C00000AD9878940F900F900F900F909F
S11300D00F900F90C5FF18C01BD20AD285EE91E095
S11300E09F938F9389EA90E09F938F9381E891E0A7
S11300F09F938F93DCD381E891E036D30F900F90D8
S11301000F900F900F900F90C4FF06C06CE485E031
S11301102AD10FD3EDD1F1D1FF91EF91CF91BF91BE
S1130120AF919F918F917F916F915F914F913F918B
S11301302F910F900FBE0F901F901895AA9A2FEF32
S113014089E698E1215080409040E1F700C000002A
S113015001E021E048E060E080E09BE421D380EF0F
S113016090E002D38CEB90E0FFD279DF97D08FE15F
S11301709EE40197F1F700C000003AD2813021F4E7
S11301808DEC90E0F1D203C083EF90E0EDD29ED0ED
S11301901F928F9386E191E09F938F93C1E8D1E002
S11301A0DF93CF9384D3CE01DFD280E094D01F922B
S11301B08F9387E291E09F938F93DF93CF9377D3CD
S11301C0CE01D2D286E087D01F928F9388E391E04C
S11301D09F938F93DF93CF936AD3CE01C5D285E0EB
S11301E07AD01F928F938BE491E09F938F93DF9348
S11301F0CF935DD3CE01B8D281E06DD01F928F939F
S11302008BE591E09F938F93DF93CF9350D3CE01EF
S1130210ABD282E060D01F928F938BE691E09F93E4
S11302208F93DF93CF9343D38DB79EB784960FB646
S1130230F8949EBF0FBE8DBFCE0196D2E5EEF1E0DD
S11302408BE681938F5F8B37E1F77894C0E0D0E041
S1130250CF5FC13039F440E165EE71E08AE690E0A9
S113026080D112C0C23039F440E165EE71E085E618
S113027090E077D109C0C33039F440E165EE71E014
S113028080E690E06ED1CD2F9FEF29E688E1915072
S113029020408040E1F700C00000DACF4FD28A98B6
S11302A0A59AA29AAD9AAA9AC09887E592E0019776
S11302B0F1F700C00000C19A9FEF20E782E091505F
S11302C020408040E1F700C000000895C1988FEFFE
S11302D042D2C19A0895C1983ED28FEF3CD2C19ABE
S11302E00895AF92BF92CF92DF92EF92FF920F9355
S11302F01F93CF93DF93B82EA62E8A01E22E81E0BE
S1130300B81204C0862F8F718062A82EC1988A2DDE
S113031022D2F12C1E141F04B4F4C0E0D0E0B110BA
S113032006C0E0EAAE1619F08FEF15D208C06801D6
S1130330FFEFCF1ADF0AF80180810DD286012196E2
S1130340CE15DF0561F7C19AF5E3FA95F1F70000E0
S1130350DF91CF911F910F91FF90EF90DF90CF909D
S1130360BF90AF900895CF93C62FC1988F718062CC
S1130370F2D18C2FF0D1C19ACF910895CF93DF930E
S1130380EC0120E030E044E050E0DB01A20FB31FB9
S1130390FA01E21BF30BEC0FFD1F90819C932F5F7E
S11303A03F4F2530310589F7DF91CF910895CF93E1
S11303B0DF9300D000D01F92CDB7DEB79B0181112F
S11303C015C085E0FB01ADE8B0E001900D928A957F
S11303D0E1F7BE016F5F7F4FC901D0DF25E0AE01B9
S11303E04F5F5F4F6AE081E07CDF51C08130A9F448
S11303F085E0FB01A8E8B0E001900D928A95E1F751
S1130400BE016F5F7F4FC901B9DF25E0AE014F5FC9
S11304105F4F6BE081E065DF3AC0823069F485E0CC
S1130420FB01A3E8B0E001900D928A95E1F7FB018E
S113043064818CE098DF2BC0833069F485E0FB0194
S1130440AEE7B0E001900D928A95E1F7FB0164817B
S11304508DE089DF1CC0843069F485E0FB01A9E7E5
S1130460B0E001900D928A95E1F7FB0164818EE082
S11304707ADF0DC0853059F4FB01A4E7B0E00190A8
S11304800D928A95E1F7FB0164818FE06CDF0F9098
S11304900F900F900F900F90DF91CF910895CF930D
S11304A0DF9300D000D01F92CDB7DEB725E0FC016A
S11304B0AFE6B0E001900D922A95E1F7BE016F5FBF
S11304C07F4F5CDF25E0AE014F5F5F4F6AE081E064
S11304D008DF25E0AE014F5F5F4F60E181E001DF9F
S11304E00F900F900F900F900F90DF91CF91089580
S11304F0EDDE682F87E037DF0895C09A80E58A959E
S1130500F1F7C0980895C19882EE25D1C19A089553
S1130510C19881EE20D1C19A0895C09887E592E0F0
S11305200197F1F700C0000080E0D5DE682F6E7FF0
S113053080E019DF87E592E00197F1F700C0000041
S113054080E0C9DE682F626080E00DDF60E787E04D
S11305500ADFDEDF87E592E00197F1F700C00000D3
S11305600895FF920F931F93CF93DF93EC018B01B8
S1130570F42EC09887E592E00197F1F700C00000DF
S1130580CCDFBE0180E013DFCE0189DF2F2DA8016F
S113059060EA80E0A6DEB1DFDF91CF911F910F9179
S11305A0FF90089568E870E081E001DF80E093DE69
S11305B0682F6D6080E0D7DE87E592E00197F1F760
S11305C000C0000080E087DE682F626080E0CBDE40
S11305D060E787E0C8DE97DF9BDFC09A9FEF22E5E4
S11305E087E0915020408040E1F700C0000008956A
S11305F0C19AC0988FE19EE40197F1F700C0000012
S113060086E069DE682F636086E0ADDE86E063DE47
S1130610682F677D86E0A7DE80E05DDE682F6C6072
S113062080E0A1DE6AE284E09EDE60E08CE19BDE95
S11306306CE485E098DE60E181E195DE60E182E1D1
S113064092DE60E183E18FDE60E184E18CDE60E1D3
S113065085E189DE60E186E186DE60E082E083DEBA
S113066082E039DE682F616082E07DDE82E033DE85
S1130670682F626082E077DE82E02DDE682F64609E
S113068082E071DE82E027DE682F686082E06BDE44
S113069082E021DE682F606182E065DE82E01BDE9D
S11306A0682F606282E05FDE81E015DE682F6160A2
S11306B081E059DE81E00FDE682F626081E053DE65
S11306C081E009DE682F646081E04DDE81E003DEB5
S11306D0682F686081E047DE81E0FDDD682F60619E
S11306E081E041DE81E0F7DD682F606281E03BDE7E
S11306F063E083E038DE6DE870E080E058DE68E8AF
S113070070E081E054DE63E870E082E050DE6EE782
S113071070E083E04CDE69E770E084E048DE64E783
S113072070E085E044DE8FE690E0B9DE3BDF81E0F7
S11307300895C19883EE0FD0C19A089587B3837C3E
S113074087BB87B38C6287BBB99AB89A81E58DB9A8
S113075081E08EB908958FB9779BFECF8FB108954C
S11307605D9BFECF8CB908951F93CF93DF93EC016B
S113077010E006C0FE01E20FF31F8081F1DF1F5F6E
S1130780212F30E0FE0101900020E9F73197EC1BA6
S1130790FD0B2E173F0770F3DF91CF911F91089542
S11307A00F93CF93DF93D42FC22F9C0140E050E0EE
S11307B0613041F060E472E48FE090E03AD021507F
S11307C0310909C060E874E88EE190E032D021502C
S11307D0310982E08BB988E18AB9023011F488E0EA
S11307E080BDC11104C080B5806280BD05C0C13028
S11307F019F480B5806380BDD63021F480B5826061
S113080080BD0CC0D73021F480B5846080BD0BC09E
S1130810D83021F480B5866080BD05C0D93019F484
S113082080B58E6080BD30BD29B9DF91CF910F9125
S11308300895052E97FB16F400940FD057FD05D0AC
S113084014D007FC02D046F408C05095409530956A
S113085021953F4F4F4F5F4F089590958095709528
S113086061957F4F8F4F9F4F0895A1E21A2EAA1BC7
S1130870BB1BFD010DC0AA1FBB1FEE1FFF1FA2174C
S1130880B307E407F50720F0A21BB30BE40BF50B49
S1130890661F771F881F991F1A9469F760957095D2
S11308A0809590959B01AC01BD01CF010895AEE008
S11308B0B0E0ECE5F4E098C20D891E8986E08C83F3
S11308C01A8309838FEF9FE79E838D83AE01475E72
S11308D05F4F6F89788DCE01019609D02F813885BD
S11308E0F801E20FF31F10822E96E4E099C2ACE007
S11308F0B0E0ECE7F4E06AC27C016B018A01FC0120
S113090017821682838181FFB0C1CE0101964C010A
S1130910F7019381F60193FD859193FF81916F0116
S1130920882309F49EC1853239F493FD859193FFA0
S113093081916F01853221F4B70190E0B1D1E8CF04
S1130940512C312C20E02032A0F48B3269F030F4A9
S1130950803259F0833269F420612CC08D3239F031
S1130960803339F4216026C02260246023C02860CB
S113097021C027FD27C030ED380F3A3078F426FF28
S113098006C0FAE05F9E300D1124532E13C08AE096
S1130990389E300D1124332E20620CC08E3221F487
S11309A026FD5FC1206406C08C3611F4206802C0A5
S11309B0883641F4F60193FD859193FF81916F018F
S11309C08111C1CF982F9F7D9554933028F40C5FEB
S11309D01F4FFFE3F9830DC0833631F0833771F085
S11309E0833509F057C021C0F801808189830E5FE7
S11309F01F4F44244394512C540114C03801F2E095
S1130A006F0E711CF801A080B18026FF03C0652D14
S1130A1070E002C06FEF7FEFC5012C8736D12C0147
S1130A2083012C852F77222E16C03801F2E06F0E39
S1130A30711CF801A080B18026FF03C0652D70E011
S1130A4002C06FEF7FEFC5012C8714D12C012C85D8
S1130A502068222E830123FC19C0832D90E04816C0
S1130A605906A0F4B70180E290E01AD13A94F5CF88
S1130A70F50127FC859127FE81915F01B70190E084
S1130A800FD131103A94F1E04F1A51084114510436
S1130A9079F7DEC0843611F0893631F5F80127FF85
S1130AA007C060817181828193810C5F1F4F08C0F0
S1130AB060817181072E000C880B990B0E5F1F4F0C
S1130AC02F76722E97FF09C0909580957095619549
S1130AD07F4F8F4F9F4F2068722E2AE030E0A40191
S1130AE017D1A82EA81843C0853729F42F7EB22E1B
S1130AF02AE030E025C0F22FF97FBF2E8F36C1F0F7
S1130B0018F4883579F0ADC0803719F0883721F0B2
S1130B10A8C02F2F2061B22EB4FE0DC08B2D84608F
S1130B20B82E09C024FF0AC09F2F9660B92E06C0B4
S1130B3028E030E005C020E130E002C020E132E0EE
S1130B40F801B7FE07C060817181828193810C5FD7
S1130B501F4F06C06081718180E090E00E5F1F4FDF
S1130B60A401D6D0A82EA818FB2DFF777F2E76FEE1
S1130B700BC0372D3E7FA51450F474FE0AC072FCDE
S1130B8008C0372D3E7E05C0BA2C372D03C0BA2CC1
S1130B9001C0B52C34FF0DC0FE01EA0DF11D8081AA
S1130BA0803311F4397E09C032FF06C0B394B39484
S1130BB004C0832F867809F0B39433FD12C030FF4C
S1130BC006C05A2CB31418F4530C5B18B32CB3148A
S1130BD060F4B70180E290E03C8762D0B3943C8536
S1130BE0F6CFB31410F43B1801C0312C34FF11C0FC
S1130BF0B70180E390E03C8753D03C8532FF16C0B8
S1130C0031FD03C088E790E002C088E590E0B701B9
S1130C100CC0832F867851F031FF02C08BE201C0F3
S1130C2080E237FD8DE2B70190E03AD0A51430F4AC
S1130C30B70180E390E034D05A94F8CFAA94F40139
S1130C40EA0DF11D8081B70190E02AD0A110F6CF02
S1130C50332009F45DCEB70180E290E021D03A94CC
S1130C60F7CFF7018681978102C08FEF9FEF2C9613
S1130C70E2E1C8C0FC010590615070400110D8F752
S1130C80809590958E0F9F1F0895FC0161507040D0
S1130C9001900110D8F7809590958E0F9F1F0895AD
S1130CA00F931F93CF93DF93FB01238121FD03C097
S1130CB08FEF9FEF28C022FF16C046815781248101
S1130CC035814217530744F4A081B1819D012F5F00
S1130CD03F4F318320838C93268137812F5F3F4F91
S1130CE03783268310C0EB01092F182F0084F18568
S1130CF0E02D0995892BE1F68E819F8101969F83D2
S1130D008E83812F902FDF91CF911F910F910895A2
S1130D10FA01AA27283051F1203181F1E8946F9328
S1130D206E7F6E5F7F4F8F4F9F4FAF4FB1E03ED0CE
S1130D30B4E03CD0670F781F891F9A1FA11D680F6C
S1130D40791F8A1F911DA11D6A0F711D811D911D9F
S1130D50A11D20D009F468943F912AE0269F112414
S1130D603019305D3193DEF6CF010895462F477078
S1130D70405D4193B3E00FD0C9F7F6CF462F4F70D3
S1130D80405D4A3318F0495D31FD4052419302D031
S1130D90A9F7EACFB4E0A6959795879577956795D7
S1130DA0BA95C9F700976105710508959B01AC01D7
S1130DB00A2E06945795479537952795BA95C9F7FE
S1130DC0620F731F841F951FA01D08952F923F92D9
S1130DD04F925F926F927F928F929F92AF92BF9247
S1130DE0CF92DF92EF92FF920F931F93CF93DF93F3
S1130DF0CDB7DEB7CA1BDB0B0FB6F894DEBF0FBE50
S1130E00CDBF09942A88398848885F846E847D849C
S1130E108C849B84AA84B984C884DF80EE80FD809E
S1130E200C811B81AA81B981CE0FD11D0FB6F89414
S1110E30DEBF0FBECDBFED010895F894FFCFD5
S1130E3EC1C2C2C2C4C1C2C2C2C3C1C2C2C2C2E85A
S1130E4EE8F0F0E2C1C2C2C2C6C1C2C2C2C5C1C2CA
S1130E5EC2C2C4C1C2C2C2C3C1C2C2C2C2E8E8F0E5
S1130E6EF0E2496E742E205354415455533A2030B7
S1130E7E7825303258200D0A005472616E736D69F4
S1130E8E747465643A202573200D0A004D656761FC
S1130E9E382073746172746564200D0A006E5246B4
S1130EAE323420636F6E66696775726174696F6E32
S1130EBE2069732066696E69736865642E2E2E2010
S1130ECE0D0A004572726F7220696E206E524632A0
S1130EDE3420636F6E66696775726174696F6E2E06
S1130EEE2E2E200D0A005354415455533A20307877
S1130EFE253032580D0A00434F4E4649473A2030AA
S1130F0E78253032580D0A0052465F5345545550D9
S1130F1E3A203078253032580D0A0052465F434845
S1130F2E3A203078253032580D0A00454E5F414143
S1130F3E3A203078253032580D0A00454E5F52580B
S1130F4E414444523A203078253032580D0A00007C
S9030000FC
