:1000000019C04EC032C031C030C02FC0B5C02DC0E5
:100010002CC02BC02AC029C028C027C026C025C09C
:1000200024C023C022C021C020C01FC01EC01DC0CC
:1000300099C01BC011241FBECFEFD2E0DEBFCDBFE1
:1000400011E0A0E0B1E0E0E4FCE002C005900D9218
:10005000A832B107D9F721E0A8E2B1E001C01D92B2
:10006000A138B207E1F74BD1E9C5CACFE89AE9E672
:10007000F0E0808182608083E09A0895589A4898E1
:100080008DB38DBBE9E6F0E0808180838CB38CBBBF
:1000900018B816B88FEF8BB919B885B913B8089589
:1000A0001F920F920FB60F9211242F933F934F93ED
:1000B0005F936F937F938F939F93AF93BF93CF93F0
:1000C000EF93FF93F8945BD1C82F85FF30C011D315
:1000D00005D352D389EF90E00197F1F700C00000FB
:1000E000CDDFE4E6F0E080818460808380818068F9
:1000F0008083A89599E288E10FB6F894A89580933B
:1001000060000FBE90936000E0E6F0E080818064C4
:100110008083789483B7817F846083BF83B7816055
:1001200083BF85B7806685BF8F7D85BF8895C4FFF7
:1001300007C078946CE485E06FD119D3CFD2D3D2C5
:10014000FF91EF91CF91BF91AF919F918F917F914F
:100150006F915F914F913F912F910F900FBE0F9034
:100160001F9018951F920F920FB60F9211240F90A7
:100170000FBE0F901F9018951F920F920FB60F92FF
:1001800011244F925F926F927F92BF92CF92DF9233
:10019000EF92FF920F931F932F933F934F935F9391
:1001A0006F937F938F939F93AF93BF93CF93DF937F
:1001B000EF93FF9304E610E0F80180818F7780834E
:1001C000FCD281E018D360937D0170937E0180930F
:1001D0007F019093800182E00ED36B017C016093DC
:1001E0007401709375018093760190937701C4E652
:1001F000D1E0188289E1898381E08B8340907D0181
:1002000050907E0160907F0170908001C301B20127
:10021000F8D36C8320E030E040E251E4C301B20146
:10022000AAD4EAD3B62EC301B201E6D3862F880F33
:10023000682F660F660F860FB81ABD8282E08E8324
:10024000C701B601DED36F8320E030E040E251E425
:10025000C701B60190D4D0D3B62EC701B601CCD316
:10026000862F880F682F660F660F860FB81AB8861C
:1002700081EE94E00197F1F700C0000097D2F801F9
:1002800080818B7F8083F2DE81EE94E00197F1F72D
:1002900000C0000064D0E1EEF4E03197F1F700C057
:1002A000000056D181EE94E00197F1F700C0000004
:1002B00040E1BE0180E091E03CD2F801808180689D
:1002C0008083FF91EF91DF91CF91BF91AF919F918B
:1002D0008F917F916F915F914F913F912F911F91DE
:1002E0000F91FF90EF90DF90CF90BF907F906F9035
:1002F0005F904F900F900FBE0F901F90189583ED59
:1003000090E30197F1F700C00000E4E6F0E080819F
:100310008B7F8083808180628083808188608083FE
:10032000A89599E288E10FB6F894A89580936000AB
:100330000FBE90936000E0E6F0E0808180648083EF
:10034000789483B7817F846083BF83B7816083BFE4
:1003500085B7806685BF8F7D85BF8895FFCF13D217
:1003600052983A9A429A289882E38A95F1F7299A04
:1003700083ED90E30197F1F700C0000008952998FC
:100380008FEF0ED2299A089529980AD28FEF08D2BA
:10039000299A0895AF92BF92CF92DF92EF92FF9287
:1003A0000F931F93CF93DF93B82EA62E8A01E22ED0
:1003B00081E0B81204C0862F8F718062A82E299820
:1003C0008A2DEED1F12C1E141F04B4F4C0E0D0E04D
:1003D000B11006C0E0EAAE1619F08FEFE1D108C007
:1003E0006801FFEFCF1ADF0AF8018081D9D18601B9
:1003F0002196CE15DF0561F7299AF3E0FA95F1F71A
:100400000000DF91CF911F910F91FF90EF90DF904F
:10041000CF90BF90AF900895CF93C62F29988F713A
:100420008062BED18C2FBCD1299ACF910895CF93F1
:10043000DF93EC0120E030E044E050E0DB01A20F6C
:10044000B31FFA01E21BF30BEC0FFD1F90819C938D
:100450002F5F3F4F2530310589F7DF91CF91089508
:10046000CF93DF9300D000D01F92CDB7DEB79B01B2
:10047000811115C085E0FB01A3E2B1E001900D926E
:100480008A95E1F7BE016F5F7F4FC901D0DF25E09C
:10049000AE014F5F5F4F6AE081E07CDF51C0813089
:1004A000A9F485E0FB01AEE1B1E001900D928A95DF
:1004B000E1F7BE016F5F7F4FC901B9DF25E0AE01F3
:1004C0004F5F5F4F6BE081E065DF3AC0823069F4D7
:1004D00085E0FB01A9E1B1E001900D928A95E1F779
:1004E000FB0164818CE098DF2BC0833069F485E0E8
:1004F000FB01A4E1B1E001900D928A95E1F7FB01C7
:1005000064818DE089DF1CC0843069F485E0FB01E3
:10051000AFE0B1E001900D928A95E1F7FB016481B3
:100520008EE07ADF0DC0853059F4FB01AAE0B1E01E
:1005300001900D928A95E1F7FB0164818FE06CDFF9
:100540000F900F900F900F900F90DF91CF91089523
:10055000299A289881EE94E00197F1F700C00000F5
:1005600086E012DF682F636086E056DF86E00CDFEE
:10057000682F677D86E050DF80E006DF682F6C60C3
:1005800080E04ADF6AE284E047DF60E08CE144DF3C
:100590006CE485E041DF60E181E13EDF60E182E122
:1005A0003BDF60E183E138DF60E184E135DF60E17A
:1005B00085E132DF60E186E12FDF60E082E02CDF61
:1005C00082E0E2DE682F616082E026DF82E0DCDE2E
:1005D000682F626082E020DF82E0D6DE682F6460F0
:1005E00082E01ADF82E0D0DE682F686082E014DFEC
:1005F00082E0CADE682F606182E00EDF82E0C4DE46
:10060000682F606282E008DF81E0BEDE682F6160F3
:1006100081E002DF81E0B8DE682F626081E0FCDE0D
:1006200081E0B2DE682F646081E0F6DE81E0ACDE5E
:10063000682F686081E0F0DE81E0A6DE682F6061EF
:1006400081E0EADE81E0A0DE682F606281E0E4DE26
:1006500063E083E0E1DE63E271E080E001DF6EE110
:1006600071E081E0FDDE69E171E082E0F9DE64E1E4
:1006700071E083E0F5DE6FE071E084E0F1DE6AE0D6
:1006800071E085E0EDDE81E00895CF93DF9300D047
:1006900000D01F92CDB7DEB725E0FC01A5E0B1E0A8
:1006A00001900D922A95E1F7BE016F5F7F4FBFDE8B
:1006B00025E0AE014F5F5F4F6AE081E06BDE25E031
:1006C000AE014F5F5F4F60E181E064DE0F900F90FD
:1006D0000F900F900F90DF91CF91089550DE682F0B
:1006E00087E09ADE0895289A85E08A95F1F72898A0
:1006F0000895299881EE54D0299A0895289882E384
:100700008A95F1F780E040DE682F6E7F80E084DE1E
:1007100082E38A95F1F780E037DE682F626080E03F
:100720007BDE60E787E078DEE4DF82E38A95F1F73D
:100730000895FF920F931F93CF93DF93EC018B01EA
:10074000F42E289882E38A95F1F7D8DFBE0180E085
:1007500087DECE019ADF2F2DA80160EA80E01ADE45
:10076000C2DFDF91CF911F910F91FF9008952998DB
:1007700083EE16D0299A089580E006DE682F6D7FFB
:1007800080E04ADE089584B1837C84B984B18C62B0
:1007900084B9219A209A81E58CBD81E08DBD0895B0
:1007A0008EBD0DB407FEFDCF8EB5089588B1806370
:1007B00088B987B18F7C87B9089588B1806388B97B
:1007C00087B18F7C87B9E9EBF0E0108282E08093FB
:1007D000B8001082089585EE8093BC0083E08A956E
:1007E000F1F70000089585ED8093BC0083E08A95C1
:1007F000F1F7000008950F931F93CF93C82FEBDFFD
:10080000ECEBF0E090819923ECF780E88093BB005B
:1008100085E88093BC00ECEBF0E090819923ECF745
:10082000C13021F483EF8093BB0005C0C23019F4BE
:1008300085EF8093BB0085E88093BC00ECEBF0E093
:1008400090819923ECF787EA91E60197F1F700C0D0
:100850000000C1DFECEBF0E090819923ECF781E838
:100860008093BB0085EC8093BC00ECEBF0E09081C2
:100870009923ECF785EC8093BC00ECEBF0E09081E1
:100880009923ECF76091BB0070E085EC8093BC008D
:10089000ECEBF0E090819923ECF7762F66278091BE
:1008A000BB008B01082B85EC8093BC00ECEBF0E0E7
:1008B00090819923ECF785E88093BC00ECEBF0E0A5
:1008C00090819923ECF78FDFC130A1F4B80180E06B
:1008D00090E0C3D020E030E040E857E34CD122E57F
:1008E00038EB4FE253E447D126E636E64BE352E4D9
:1008F0001ED019C0C230A1F4B80180E090E0ADD0A4
:1009000020E030E040E857E336D120E030E04AEF25
:1009100052E431D120E030E040EC50E408D003C094
:1009200060E070E0CB01CF911F910F910895505876
:10093000BB27AA270ED0E5C0D6D030F0DBD020F000
:1009400031F49F3F11F41EF4CBC00EF4E095E7FBA9
:10095000C1C0E92FE7D080F3BA1762077307840795
:10096000950718F071F49EF5FFC00EF4E0950B2E7C
:10097000BA2FA02D0B01B90190010C01CA01A001F1
:100980001124FF27591B99F0593F50F4503E68F14C
:100990001A16F040A22F232F342F4427585FF3CF8D
:1009A000469537952795A795F0405395C9F77EF45E
:1009B0001F16BA0B620B730B840BBAF09150A1F0A7
:1009C000FF0FBB1F661F771F881FC2F70EC0BA0F2D
:1009D000621F731F841F48F4879577956795B795B5
:1009E000F7959E3F08F0B3CF9395880F08F09927AD
:1009F000EE0F97958795089504D06894B111B5C00E
:100A0000089598D088F09F5790F0B92F9927B75143
:100A1000A0F0D1F0660F771F881F991F1AF0BA95C2
:100A2000C9F712C0B13081F09FD0B1E008959CC0E9
:100A3000672F782F8827B85F39F0B93FCCF38695B8
:100A400077956795B395D9F73EF490958095709515
:100A500061957F4F8F4F9F4F0895E89409C097FB92
:100A60003EF490958095709561957F4F8F4F9F4F85
:100A70009923A9F0F92F96E9BB279395F6958795C9
:100A800077956795B795F111F8CFFAF4BB0F11F48C
:100A900060FF1BC06F5F7F4F8F4F9F4F16C0882333
:100AA00011F096E911C0772321F09EE8872F762F69
:100AB00005C0662371F096E8862F70E060E02AF0AA
:100AC0009A95660F771F881FDAF7880F9695879596
:100AD00097F9089597F99F6780E870E060E00895BE
:100AE0009FEF80EC089500240A9416161706180646
:100AF0000906089500240A94121613061406050622
:100B00000895092E0394000C11F4882352F0BB0FB2
:100B100040F4BF2B11F460FF04C06F5F7F4F8F4F15
:100B20009F4F089557FD9058440F551F59F05F3F50
:100B300071F04795880F97FB991F61F09F3F79F0FF
:100B400087950895121613061406551FF2CF469581
:100B5000F1DF08C0161617061806991FF1CF869503
:100B60007105610508940895E894BB2766277727E7
:100B7000CB0197F908950BD0C4CFB5DF28F0BADFC9
:100B800018F0952309F0A6CFABCF1124EECFCADF22
:100B9000A0F3959FD1F3950F50E0551F629FF00190
:100BA000729FBB27F00DB11D639FAA27F00DB11DE9
:100BB000AA1F649F6627B00DA11D661F829F222772
:100BC000B00DA11D621F739FB00DA11D621F839FF9
:100BD000A00D611D221F749F3327A00D611D231FCF
:100BE000849F600D211D822F762F6A2F11249F571D
:100BF00050408AF0E1F088234AF0EE0FFF1FBB1F40
:100C0000661F771F881F91505040A9F79E3F5105DE
:100C100070F060CFAACF5F3FECF3983EDCF386958F
:100C200077956795B795F795E7959F5FC1F7FE2B89
:100C3000880F911D9695879597F90895F894FFCFA1
:100C4000C1C2C2C2C2E8E8F0F0E2C1C2C2C2C6C1BB
:100C5000C2C2C2C5C1C2C2C2C4C1C2C2C2C3C1C271
:080C6000C2C2C2E8E8F0F0E2B4
:00000001FF
